:100000000C94C7050C94E4050C94E4050C94E405E9
:100010000C94E4050C94E4050C94E4050C94E405BC
:100020000C94E4050C94E4050C94AB270C947F2805
:100030000C94A7190C94E4050C94E4050C94E405C5
:100040000C94E4050C94E4050C94E4050C94E4058C
:100050000C94E4050C94FE190C94E4050C94E4054E
:100060000C94E4050C94E4050C94E4050C94E4056C
:100070000C94E4050C94E4050C94E4050C94E4055C
:100080000C94E4050C94E4050C94E4050C94E4054C
:100090000C94E4050C94E4050C94E4050C94E4053C
:1000A0000C94E4050C94E4050C94E40550004F0016
:1000B000520051005F00600061002E025C005D0094
:1000C0005E002D0059005A005B00280062003700D6
:1000D0004F002B0044454255473A206469736162E2
:1000E0006C65642E0A0044454255473A20656E61AE
:1000F000626C65642E0A000A0025303862003A20DE
:100100000025303258000A722F63203031323334E8
:100110003536370A000A002530325820006B6579E1
:10012000626F6172645F7265706F72743A20000A68
:100130000025303258006B6579626F6172645F73BD
:1001400065745F6C65643A2000290A002575002FEC
:10015000002575005D28002564002000256400202E
:100160000025640020002564007C00253032580002
:100170006D6F7573656B6579205B62746E7C78203A
:1001800079207620685D287265702F61636C293A4A
:10019000205B006D6B5F776865656C5F74696D658A
:1001A0005F746F5F6D6178203D2025640A006D6B80
:1001B0005F776865656C5F6D61785F7370656564B6
:1001C000203D2025640A006D6B5F74696D655F7466
:1001D0006F5F6D6178203D2025640A006D6B5F6D57
:1001E00061785F7370656564203D2025640A006D49
:1001F0006B5F696E74657276616C203D2025640AC0
:10020000006D6B5F64656C6179203D2025640A0098
:100210006D6B5F776865656C5F74696D655F746F42
:100220005F6D6178203D2025640A006D6B5F776803
:1002300065656C5F6D61785F7370656564203D20F6
:1002400025640A006D6B5F74696D655F746F5F6D27
:100250006178203D2025640A006D6B5F6D61785FD9
:100260007370656564203D2025640A006D6B5F69CD
:100270006E74657276616C203D2025640A006D6B9A
:100280005F64656C6179203D2025640A000A0025C1
:100290007500363A20776865656C5F74696D655FD7
:1002A000746F5F6D61783A20000A00257500353A59
:1002B00020776865656C5F6D61785F7370656564F4
:1002C0003A20000A00257500343A2074696D655F94
:1002D000746F5F6D61783A20000A00257500333A2B
:1002E000206D61785F73706565643A20000A0025AF
:1002F0007500323A20696E74657276616C286D7390
:10030000293A20000A00257500313A2064656C61A5
:1003100079282A31306D73293A20000A092D205698
:10032000616C756573202D0A004D3E004D25643EBD
:1003300020003F007365742064656661756C740A03
:1003400000433E200077686572652064656C7461C7
:100350003A20637572736F723D25642C207768654F
:10036000656C3D25640A53656520687474703A2F86
:100370002F656E2E77696B6970656469612E6F7287
:10038000672F77696B692F4D6F7573655F6B657943
:10039000730A000A092D204D6F7573656B6579200E
:1003A0002D0A4553432F713A09717569740A313A20
:1003B0000964656C6179282A31306D73290A323AF3
:1003C00009696E74657276616C286D73290A333A17
:1003D000096D61785F73706565640A343A09746900
:1003E0006D655F746F5F6D61780A353A097768658E
:1003F000656C5F6D61785F73706565640A363A0994
:10040000776865656C5F74696D655F746F5F6D615A
:10041000780A0A703A097072696E742076616C7598
:1004200065730A643A097365742064656661756C66
:1004300074730A75703A092B310A646F776E3A0942
:100440002D310A706775703A092B31300A70676474
:100450006F776E3A092D31300A0A73706565642032
:100460003D2064656C7461202A206D61785F737033
:10047000656564202A2028726570656174202F20CC
:1004800074696D655F746F5F6D6178290A003F0064
:100490004D3E2000433E20004C25640A0074696DE7
:1004A00065725F72656164333228293A20253034E1
:1004B0006C580A006B6579626F6172645F69646C85
:1004C000653A2025580A006B6579626F6172645F36
:1004D00070726F746F636F6C3A2025580A00686FF2
:1004E00073745F6B6579626F6172645F6C6564736E
:1004F00028293A2025580A000A092D2053746174CE
:100500007573202D0A004743433A20382E342E308D
:10051000204156522D4C4942433A20322E302E3043
:10052000204156525F415243483A20617672350A63
:10053000004F5054494F4E533A204C554641204DA0
:100540004F5553454B45592045585452414B4559F9
:1005500020434F4E534F4C4520434F4D4D414E4449
:10056000203531320A004255494C443A2022302E7F
:10057000392E31302D32342D6762613766353222A3
:10058000202830383A34303A3135204A756E2031DF
:10059000342032303230290A005649443A2030782B
:1005A0004242383028486578776972652920504979
:1005B000443A20307830353034284E756D7061649F
:1005C00020323029205645523A20307830303031B0
:1005D0000A00444553433A2048616E647769726566
:1005E0006420347835206E756D7061640A000A09E4
:1005F0002D2056657273696F6E202D0A000A092D31
:1006000020436F6E736F6C65202D0A4553432F7125
:100610003A09717569740A6D3A096D6F7573656B86
:1006200065790A000A092D204D61676963202D0A4A
:10063000443A094465627567204D65737361676567
:1006400020546F67676C650A583A094D6174726986
:1006500078204465627567204D6F646520546F672C
:10066000676C65202D2053686F77206B65797072F9
:10067000657373657320696E206D6174726978208B
:10068000677269640A4B3A094B6579626F617264FB
:1006900020446562756720546F67676C65202D2064
:1006A00053686F77206B657970726573732072651C
:1006B000706F72740A4D3A094465627567204D6F18
:1006C00075736520546F67676C650A563A095665FD
:1006D0007273696F6E0A533A095374617475730AC1
:1006E000433A09416374697661746520436F6E73A0
:1006F0006F6C65204D6F64650A46312D4631303A86
:100700000953776974636820746F204C617965724E
:1007100020302D392028463130203D204C30290A08
:10072000302D393A0953776974636820746F204C0F
:100730006179657220302D390A47524156453A0990
:1007400053776974636820746F204C6179657220F7
:10075000302028616C7465726E617465290A423AB2
:10076000094A756D7020746F20426F6F746C6F61F1
:100770006465720A4553433A094A756D7020746F77
:1007800020426F6F746C6F616465722028616C74B5
:1007900065726E617465290A453A095072696E7412
:1007A00020454550524F4D2053657474696E6773F0
:1007B0000A4253504143453A09436C6561722045F2
:1007C0004550524F4D0A000A002575002E6E6B727F
:1007D0006F3A20000A002575002E737761705F6202
:1007E00061636B736C6173685F6261636B7370618B
:1007F00063653A20000A002575002E737761705FEB
:1008000067726176655F6573633A20000A0025753B
:10081000002E6E6F5F6775693A20000A002575002B
:100820002E737761705F72616C745F726775693A7D
:1008300020000A002575002E737761705F6C616C73
:10084000745F6C6775693A20000A002575002E7385
:100850007761705F7263746C5F726775693A2000CC
:100860000A002575002E737761705F6C63746C5F8E
:100870006C6775693A20000A002575002E63617067
:10088000736C6F636B5F746F5F636F6E74726F6CAA
:100890003A20000A002575002E737761705F636F40
:1008A0006E74726F6C5F636170736C6F636B3A2010
:1008B000000A0025303258006B65796D61705F6306
:1008C0006F6E6669672E7261773A20000A0025759F
:1008D000002E6D6F7573653A20000A002575002E95
:1008E0006B6579626F6172643A20000A00257500B9
:1008F0002E6D61747269783A20000A002575002E09
:10090000656E61626C653A20000A0025303258003D
:1009100064656275675F636F6E6669672E72617783
:100920003A20000A0025750064656661756C745F85
:100930006C617965723A20003F000A6D6F757365CE
:100940003A206F66660A000A6D6F7573653A206F0C
:100950006E0A000A6B6579626F6172643A206F6695
:10096000660A000A6B6579626F6172643A206F6E85
:100970000A000A6D61747269783A206F66660A002F
:100980000A6D61747269783A206F6E0A000A6465B4
:100990006275673A206F66660A000A646562756769
:1009A0003A206F6E0A000A0A4A756D70696E6720F8
:1009B000746F20626F6F746C6F616465722E2E2E7F
:1009C0002000433E2000436C656172696E672045DC
:1009D0004550524F4D0A006565636F6E6669673A10
:1009E0000A005B735D004B6579626F61726420730E
:1009F000746172742E0A005B575D005B535D005B8F
:100A0000525D005B445D005B435D00040330000009
:100A10000014034E0075006D00700061006400203A
:100A200000320030000000100348006500780077B5
:100A30000069007200650000000403090409025BFC
:100A400000030100A0FA09040000010301010009EC
:100A500021110100012240000705810308000A0955
:100A6000040100010300000009211101000122819D
:100A7000000705820320000A0904020002030000A7
:100A80000009211101000122220007058303200033
:100A900001070503032000011201100100000008F6
:100AA00080BB04050100010203010631FF0974A1A6
:100AB000010975150026FF00952075088102097649
:100AC000150026FF00952075089102C00501090256
:100AD000A10185020901A1000509190129051500D7
:100AE00025019505750181029501750381010501B7
:100AF000093009311581257F95027508810609386D
:100B00001581257F950175088106050C0A380215A7
:100B100081257F950175088106C0C005010980A166
:100B200001850319012AB700150126B70095017543
:100B3000108100C0050C0901A101850419012AA03A
:100B400002150126A002950175108100C00501095A
:100B500006A101050719E029E7150025019508758B
:100B60000181029501750881010507190029FF150A
:100B70000026FF0095067508810005081901290562
:100B8000950575019102950175039101C00011242D
:100B90001FBECFEFDAE0DEBFCDBF11E0A0E0B1E0D5
:100BA000ECEAF5E502C005900D92AA39B107D9F734
:100BB00022E0AAE9B1E001C01D92AB34B207E1F72F
:100BC0000E94D1240C94AC2A0C940000FF93EF9364
:100BD000E0919A01F0919B01309709F00995EF910E
:100BE000FF910895FC018591803011F0EFDFFBCF7C
:100BF0000895FF27E0E230E247FF0CC0419597FFE0
:100C000009C0EDE26095709580959095611D711D0C
:100C1000811D911D27FF02C0219530E350E2AA27D4
:100C2000660F771F881F991FAA1FA41710F0A41B17
:100C300063955A95A9F7AA3008F0A95FA05DAF9314
:100C4000F395611571058105910541F7ED3211F4B8
:100C5000EF93F395F21718F43F93F395FBCF8F9131
:100C6000B5DFFA95E1F70895E991F9918591803022
:100C700021F0853219F0AADFF9CF089520E0E89439
:100C800055915532C1F3503311F4689455915A334C
:100C900048F4505390F3220F022E220F220F200D02
:100CA000250FF4CF0EF4219589919991533619F3BC
:100CB000533729F1533559F1BC0188279927E89416
:100CC0005C3621F48991999168945591543639F4A0
:100CD00046EF7EF077FF0DC08FEF9FEF0AC05537CC
:100CE0004AE039F0583540E121F0523642E009F04F
:100CF0000895FF93EF937DDFEF91FF91B7CFFF93BF
:100D0000EF93FC0181918030B9F360DFFBCFFF935B
:100D1000EF9368DFF1CFDF93CF93CDB7DEB72596A2
:100D2000A3DFCF91DF9108950C94700981E00895BD
:100D300081E008950C94980608950C949C061F93E6
:100D4000CF93DF9300D000D00F92CDB7DEB74983A9
:100D50005A836B833091AF0189819A8131111DC013
:100D60006623B9F02223A9F00E94FB16182F682FE2
:100D700089819A810E94A81669817A81812F0F90BA
:100D80000F900F900F900F90DF91CF911F910C94C7
:100D900065070E94D416182FEFCF0E94FB166981B9
:100DA0007A81EDCFFC01262F4081518162817381D0
:100DB00084810C949F06CF93DF93EC0160E00E9446
:100DC000D206BE01DF91CF910C949D060E945C1863
:100DD000811102C00E94F9180C9494060C947209B7
:100DE00008950C94F00681E008950C94F306CF93D7
:100DF000C82F0E94F1068C2FCF910C94F506089510
:100E00000E9412120E94FF062FEF84E39CE0215003
:100E100080409040E1F700C000000C94221A0F932C
:100E20001F93CF93DF93EC0161E00E94D2068C0107
:100E3000BE010E949A06882311F1BE01C8010E94DA
:100E40003C0B8823E1F0BE01C8010E947D0B882382
:100E5000B1F0BE01C8010E94A00C882381F08A81F4
:100E6000882341F101308CE5180779F00E3D8CE5BF
:100E70001807E9F001151C45E9F40E94000780E01D
:100E8000DF91CF911F910F91089590910C02892FBE
:100E90008E7F90FF816080930C0280FF05C086EEFC
:100EA00090E00E94F205EBCF84ED90E0FACF0E9433
:100EB000F918E5CFCE01DF91CF911F910F910C94DE
:100EC000960690E080E008950895E72FF0E095E021
:100ED000899FE00DF11D1124EE0FFF1FEE0FFF1F84
:100EE000E60FF11DEE0FFF1FE455FF4F8591949122
:100EF0000895FC01EE0FFF1FE950FF4F859194917B
:100F00000895CF93DF930E9465070E949608EC0135
:100F1000811520E5920708F042C0811530E493075F
:100F200008F0BDC0883E910528F5803E910508F087
:100F30009DC0883A910588F4853A910508F08FC0E4
:100F40008130910509F492C0009709F48FC004978D
:100F500008F08CC0D0E0C0E089C08F3B910508F458
:100F600089C0805C9109C03CD105A0F30E9479073B
:100F7000EC017CC08115904250F4C11581E0D80786
:100F800008F074C0C03FD10528F3D0656FC0C1150B
:100F900090E3D90708F079C0CE019F70E7CF8115A3
:100FA00025E5920758F5811534E5930708F0A6C0AA
:100FB000811542E5940750F4C11581E5D80708F47E
:100FC00071C0DC2FCC27C16FD06A50C0982F969586
:100FD00096959E0123703327C115D34508F07FC035
:100FE000C1E0D0E002C0CC0FDD1F2A95E2F720E27D
:100FF000929FC0011124C82BD92B6FC0C11589E560
:10100000D807A8F4C11598E5D90708F07CC0C11528
:1010100026E5D20708F09ECF8C2F0E942D09C82FFD
:10102000D0E0DC2FCC27CC27DF71D0621FC0C115E8
:101030003AE5D30708F46CC0CE0190568115904272
:1010400008F088CF8D2F8F710E942D0990E0982F86
:10105000882788279F719C012C2BE901E6CFC55A70
:10106000D0E0CD5BDE4FC881D0E0D064CE01DF910F
:10107000CF910895C85AD0E0CC0FDD1FCB5EDE4F74
:101080000990D881C02DD464F1CFCE019927D3FF28
:1010900003C0EC01D86CEACFEC01D06CE7CFDF7075
:1010A000D06AE4CFCE01E4E096958795EA95E1F722
:1010B00083702C2F26952695237090E2299F90010E
:1010C0001124382B8C2F8370C1E0D0E002C0CC0FEC
:1010D000DD1F8A95E2F7C22BD32BDC68C7CFC1E0B6
:1010E000D0E002C0CC0FDD1F2A95E2F730E2939FDB
:1010F000C0011124C82BD92BDA68B8CFD82FCC2740
:10110000C46FD06AB3CFDC2FCC27C06FD06AAECF0C
:101110008C2F8F700E942D0934E0D695C7953A9593
:10112000E1F7CF709C2FEC01D069A0CF82389105F8
:10113000B1F1B0F48133910509F475C048F48932F6
:10114000910509F469C08A32910509F473C00895C4
:101150008533910509F459C08933910501F108954A
:10116000833E9105A9F138F4803E9105F9F0823E65
:10117000910549F10895863E9105A9F1873E9105B3
:10118000C9F1843E910519F520913D0221FF1FC050
:1011900080913C0284FD14C087EE90E00895209178
:1011A0003C022370A1F080EE90E0089520913C0273
:1011B00020FD47C030913D0230FF09C024FF44C0EC
:1011C00090E080E004C020913C0222FDF7CF08951A
:1011D00020913C0222FD3BC030913D0230FDE3CF27
:1011E00024FFF5CFEDCF20913C0223FFF0CF24FD6B
:1011F000E7CFD2CF20913C0223FD2CC030913D029D
:1012000031FFEECF84EE90E0089520913C0225FF5F
:10121000DECF89E290E0089520913C0225FFD7CFF0
:1012200085E390E0089520913C0226FFD0CF8AE22A
:1012300090E0089520913C0226FFC9CF81E390E021
:10124000089589E390E0089583EE90E0089582EE9A
:1012500090E0089586EE90E0089590913C0292FF10
:1012600006C0282F28712830F9F4877F846093FF07
:1012700006C0282F28712831F1F4877E84612091DF
:101280003D0220FF06C0382F38713830D9F4877FEF
:10129000816021FF06C0282F28712831D1F4877E74
:1012A000816194FD877E0895282F24712430F9F6FA
:1012B0008B7F8860DCCF282F2471243101F78B7E4F
:1012C0008861DDCF382F3171313019F78E7F88601A
:1012D000E0CF282F2171213121F78E7E8861E1CF67
:1012E000089508950C947109E82FF0E0EF5CFD4F2C
:1012F00080810895CF92DF92EF92FF920F931F9318
:10130000CF93DF9386E091E00E94F20581E3E82E1F
:1013100082E0F82ED0E0C0E091E0C92E91E0D92E15
:1013200009EF10E0DF93CF93DF92CF920E948B06FC
:101330008EEF90E00E94F205F70181917F010E94FB
:1013400044181F928F931F930F930E948B0687EF71
:1013500090E00E94F20521968DB79EB708960FB6D1
:10136000F8949EBF0FBE8DBFC530D105D9F6DF9171
:10137000CF911F910F91FF90EF90DF90CF90089544
:1013800080EA8A95F1F70895CF93DF93AAE4B1E05C
:101390004FE451E0C1E0D0E08D91E82FE295EF708D
:1013A000F0E061A18F709E0101C0220F8A95EAF7DB
:1013B000922F9095962391A382A1822B82A34A1704
:1013C0005B0751F7A6E4B1E061E070E08D91E82F92
:1013D000E295EF70F0E041A18F709B0101C0220FF8
:1013E0008A95EAF7922F9095942391A382A1822B5C
:1013F00082A381E0AA34B80749F710922C02109218
:10140000310210922D021092320210922E0210928E
:10141000330210922F021092340210923002109276
:10142000350285E00E94980ADF91CF910C94E60680
:101430008F929F92AF92BF92CF92DF92EF92FF92E4
:101440000F931F93CF93DF938AE4A82E81E0B82EE9
:101450000CE212E0912CCC24C394D12CF5018191A3
:101460005F01C82FC295CF70D0E099A18F7076012F
:1014700001C0EE0C8A95EAF7892F8E2989A38AA1EB
:101480008E2C809488218AA30E94C009E6E4F1E0B2
:1014900050E040E020E03191A32FA295AF70B0E082
:1014A00090968C9190E03F7002C0959587953A9503
:1014B000E2F780FD39C08C2D042E01C0880F0A94FC
:1014C000EAF7282B4F5F5F4F4430510521F789A180
:1014D000882289A28AA1E82AEAA2F8018081281735
:1014E00029F1208381E0982A0F5F1F4FFFE4AF1698
:1014F000F1E0BF0609F0B2CF292D45E061E372E0CB
:101500008CE292E00E94990A0E94EE06892DDF91FA
:10151000CF911F910F91FF90EF90DF90CF90BF90F0
:10152000AF909F908F90089580E0CBCF80E0DBCF8D
:101530000895FF920F931F93CF93DF93F82E092FF7
:10154000162FD72FC42F222349F081E080939E01CC
:101550000E94D71990939D0180939C0180919E01D8
:101560008823A1F080919C0190919D010E94EF1928
:10157000069760F0EF2DF02FA12FBD2FCE0FDF2F9C
:10158000D11DEC17FD0741F410929E01DF91CF9120
:101590001F910F91FF90089581918D93F2CF0F933A
:1015A0001F93CF93DF93C62FD42F022FFC0182818C
:1015B0008823C9F06093A1010E94D7199093A001DC
:1015C00080939F0180E28C0F883008F050C0C77074
:1015D00081E001C0880FCA95EAF7DF91CF911F9192
:1015E0000F910C946F0F1091A101161335C08091CB
:1015F0009F019091A0010E94EF19883C910560F530
:10160000C0E2CD0F1D17B9F080E2810F883040F4A1
:10161000177081E001C0880F1A95EAF70E94760FD3
:10162000C83048F481E09D2F977001C0880F9A95CB
:10163000EAF70E946F0F802F0E945C0FC830B8F449
:10164000D77081E001C0880FDA95EAF7DF91CF917A
:101650001F910F910C94760F80E28C0F883038F434
:10166000C77081E001C0880FCA95EAF7EFCFDF911C
:10167000CF911F910F9108959C01CB01233F4CE521
:10168000340731F190F4283DFCE53F07E9F0293DAE
:101690004CE5340769F1273D3C4579F426E241EEFB
:1016A00061EE0E94CF0A80E00895253FFCE53F07E8
:1016B000B9F090F0263F3C45B9F0FC0182818823C7
:1016C000D1F01092A101089527E245EE65EEE9CF31
:1016D00026E241EE60EEE5CF27E245EE64EEE1CF93
:1016E00026E241EE62EEDDCF27E245EE66EED9CF8F
:1016F00028E241E0EBCF81E00895CF93DF93EC0146
:10170000FB018281882309F419C1C230FCE5DF079F
:10171000C0F1C6319CE5D90730F09E012A5F3C45F7
:101720002930310570F50E946F1890933D02809327
:101730003C02C031ECE5DE0709F4CFC008F05BC025
:10174000C8308CE5D80709F4B6C088F5C430ECE59C
:10175000DE0709F4A8C0C0F4C2308CE5D80709F44C
:101760009CC080913C028260C330DC4509F498C083
:1017700080913C0290913D020E947D180E941212BD
:1017800080E0DF91CF91089580913C028061C63066
:10179000ECE5DE0709F484C080913C028860C73024
:1017A000DC4508F47DC080913C02806279C0CC3079
:1017B0008CE5D80709F489C070F480913C028C60F4
:1017C000CA30ECE5DE0709F46BC008F478C08091FC
:1017D0003C028E7F65C0CE308CE5D80709F479C015
:1017E00080913C028B7FCF30DC4508F459C080915A
:1017F0003C028F7E55C0CB3FECE5DE0709F457C0B5
:1018000030F5C3318CE5D80709F46FC078F4C131E5
:10181000ECE5DE0709F465C0C231DC4509F0A8CF6C
:101820000E94121280913C028F773AC0C5318CE53C
:10183000D80709F462C008F476C080913D02816047
:10184000CA3FDC4509F094CF80933D0291CFCF3F52
:10185000FCE5DF0709F44DC088F480913D028D7FDF
:10186000CD3F9CE5D90781F380913D028E7FCE3F2D
:10187000DC4550F380913D028360E6CFC130FDE549
:10188000DF0709F459C008F444C080E0C230DD45E8
:1018900009F06ECF0E94FB186BCF80913C028160F3
:1018A00080933C0265CF80913C028460F9CF8091A7
:1018B0003D028260C9CF80913C028064F1CF0E94DA
:1018C000121280913C028068EBCF80913C028D7FA8
:1018D000E7CF80913C02877FE3CF80913C028F7DF0
:1018E000DFCF80913C028F7BDBCF80913C02837FF6
:1018F000D7CF80913D028C7FA7CF80913C0282FBA5
:10190000992790F921E0922790FB82F990FB83F9C7
:10191000C7CF80913D02982F909591708E7F892B33
:1019200090FB81F991CF0E94121290913C02892F75
:1019300097FB87F98058B4CF81E0ACCF81E021CF0D
:10194000CF93DF93EB0186319C4511F50E949017F0
:101950009A81992399F08A7A91E009F490E0909322
:10196000A201811109C089E20E946B170E94DC1755
:1019700080E0DF91CF91089585E3F6CF8091A201B9
:10198000811104C089E20E947217F0CF85E3FBCF7A
:1019900081E0EFCF9093A8018093A7010895E09193
:1019A000A701F091A801309721F00190F081E02D7E
:1019B000099480E00895EF92FF920F931F93CF93C5
:1019C000DF938C01E091A701F091A8013097C1F15C
:1019D0000280F381E02D099580910C0282FF30C0D6
:1019E00080FF04C08DE191E00E94F205D0E0C0E0EC
:1019F00087E1E82E81E0F82E80910C0280FF0EC076
:101A0000F801EC0FFD1F80811F928F93FF92EF92E0
:101A10000E948B060F900F900F900F902196C83068
:101A2000D10551F780910C0280FF0AC085E191E059
:101A3000DF91CF911F910F91FF90EF900C94F205E1
:101A4000DF91CF911F910F91FF90EF900895E0915A
:101A5000A701F091A801309739F022E0DC012C9326
:101A60000480F581E02D099408952091A50130911D
:101A7000A6012817390771F09093A6018093A5015C
:101A8000E091A701F091A801309721F00680F7813D
:101A9000E02D099408952091A3013091A401281705
:101AA000390771F09093A4018093A301E091A701FD
:101AB000F091A801309721F00084F185E02D099480
:101AC000089585B7806885BF85B7806885BF08950C
:101AD000089508950C94680D08950C946C0D0E945F
:101AE000610D0E94690D0C946A0D81E008950C94BB
:101AF000750D0E94CE190E94C4090E94541A0C94BC
:101B00006D0DCF93C82F80910C0282FF1EC080FF05
:101B10001CC086E391E00E94F20580910C0280FFD8
:101B200014C01F92CF9381E391E09F938F930E9403
:101B30008B0680910C020F900F900F900F9080FFFA
:101B400004C08FE291E00E94F2058C2FCF910C949B
:101B5000F706BF92CF92DF92EF92FF920F931F93FF
:101B6000CF93DF93CDB7DEB72A970FB6F894DEBFD9
:101B70000FBECDBF0E94180A0E94770D882309F47A
:101B80005EC08AEAC82E81E0D82E10E000E0B02EB8
:101B9000802F0E947409E82EF601F1906F01F8166B
:101BA00009F447C080910C0281FD0E947A099F2DA3
:101BB0009E2580E0FF24F394292F2F21B1F18E83FD
:101BC000BF82EF2081E009F480E088870E94D71966
:101BD0008160782F9A8789874E815F8168858A85A1
:101BE0000E94400EF801E655FE4F8081F826F082F3
:101BF0000E94631C0E94CF0C9091A901891781F16A
:101C00000E94CF0C8093A9012A960FB6F894DEBFEC
:101C10000FBECDBFDF91CF911F910F91FF90EF903D
:101C2000DF90CF90BF900C94810D8F5FFF0C8430BC
:101C300019F60F5F1F4F0530110509F0A8CF8FEF80
:101C400089838A831B820E94D7198160782F9D83A4
:101C50008C8349815A816B818D810E94400EC8CF4F
:101C60002A960FB6F894DEBF0FBECDBFDF91CF919D
:101C70001F910F91FF90EF90DF90CF90BF9008954C
:101C8000CF93DF93CDB7DEB72B970FB6F894DEBFB7
:101C90000FBECDBF4F83588769877A878B871E8297
:101CA0001D8285E0FE013796DE01119601900D92AE
:101CB0008A95E1F749815A816B817C818D819E8172
:101CC0002B960FB6F894DEBF0FBECDBFDF91CF913C
:101CD0000C948814FC01808191810C943D17CF9362
:101CE000C82F882309F490C08238C1F40E94CF0C19
:101CF00081FD8AC089E30E946B170E94DC172FEFD9
:101D000081EE94E0215080409040E1F700C0000057
:101D100089E30E947217CF910C94DC178338A1F4E9
:101D20000E94CF0C80FD70C083E50E946B170E945B
:101D3000DC172FEF81EE94E0215080409040E1F7D6
:101D400000C0000083E5E5CF8438A1F40E94CF0CE9
:101D500082FD5AC087E40E946B170E94DC172FEFA8
:101D600081EE94E0215080409040E1F700C00000F7
:101D700087E4CFCF8CEF8C0F813AB8F48C2F0E9480
:101D80005421811141C06C2F80910001909101017B
:101D90000E941219882329F08C2F0E9472170E942A
:101DA000DC178C2F0E946B17B6CF80E28C0F883027
:101DB00048F4C77081E001C0880FCA95EAF70E9415
:101DC0009317A9CFEBE5EC0FE33040F4F0E0E358D4
:101DD000FE4F808190E0CF910C94350DE8E5EC0F3B
:101DE000E73150F4F0E0EE0FFF1FE15BFE4F808122
:101DF0009181CF910C944B0DC03F30F08C2F0E94FD
:101E0000EF1ACF910C94D61BCF910895882309F433
:101E100052C0823871F40E94CF0C81FF4CC089E31C
:101E20000E946B170E94DC1789E30E9472170C94C2
:101E3000DC17833859F40E94CF0C80FF3CC083E547
:101E40000E946B170E94DC1783E5EFCF843859F4AA
:101E50000E94CF0C82FF2FC087E40E946B170E9464
:101E6000DC1787E4E2CF9CEF980F913AF0F290E212
:101E7000980F983050F4877091E001C0990F8A95BF
:101E8000EAF7892F0E949917D2CF9BE5980F9330DC
:101E900020F490E080E00C94350D98E5980F973190
:101EA00020F490E080E00C944B0D803F20F00E94E5
:101EB000571B0C94D61B0895CF93C82F0E946F0E0A
:101EC000C93349F42FEF87EE93E0215080409040D2
:101ED000E1F700C000008C2FCF910C94060F8823EF
:101EE00021F00E9493170C94DC170895882321F0A9
:101EF0000E9499170C94DC170895BF92CF92DF923D
:101F0000EF92FF920F931F93CF93DF936C01D62F25
:101F1000C72FFC01058102950F70128111110E94DB
:101F2000B0170E948917E82E882371F01123B1F0B1
:101F300080E28D0F883090F082E00E9427180E9486
:101F4000891791E0E82EE926BC2EB2949FE0B922D1
:101F5000EB2DF0E0E255F54D0C94502AE12CF4CF36
:101F60000C2F0F70C07F11F00295007F1123A9F094
:101F7000002359F080E28D0F883010F0D11109C094
:101F8000802F0E9493170E94DC178D2F0E946F0EE6
:101F900014C0802F0E94A317F6CF8D2F0E94060F2A
:101FA000002359F080E28D0F883010F0D1112CC041
:101FB000802F0E9499170E94DC172B2D2850330B7D
:101FC0002430310520F40E94CF0C0E94F706EE2049
:101FD00009F4D5C10E94851780FDD1C1F601128296
:101FE0000E947F170E940C16C6010E94E0110E94F9
:101FF0007F17DF91CF911F910F91FF90EF90DF90AE
:10200000CF90BF900C942D16802F0E94A917D3CF8C
:10201000FC2FFF70FF2EC07FC03219F0F29480EFCA
:10202000F822DD2369F0D13049F1112391F1002329
:1020300051F1F601858180FFA8CF8F70858323C081
:10204000112381F0011106C00E94C3178F290E943D
:102050006F0FB3CF0130C1F70E94C3178F290E94C1
:10206000C917ABCF011106C00E94D2178F2D0E9455
:10207000760FA3CF013009F4A0CFF6CF112329F0BA
:10208000063008F09ACF8F2DE2CF053008F095CFBB
:10209000EDCF002359F3D93349F4FFEF27EE33E0B6
:1020A000F15020403040E1F700C000008D2F0E9429
:1020B000060F83CF8C2F86958695837069F08130CB
:1020C00009F07BCF8D2F9C2F9370111102C090E0EF
:1020D00080E00E944B0D71CF8D2F9C2F93701111BA
:1020E00002C090E080E00E94350D67CF112309F116
:1020F000D53F99F0D63FB9F0D43F49F480913602EC
:1021000090913702816090933702809336028D2F31
:102110000E94EF1A0E94D61B50CF809136029091F8
:1021200037028260F0CF809136029091370284604E
:10213000EACFD53F89F0D63FA9F0D43F49F480914A
:102140003602909137028E7F909337028093360249
:102150008D2F0E94571BDECF80913602909137025F
:102160008D7FF2CF80913602909137028B7FECCF3A
:102170008C2F837009F041C011111FCF4D2F429554
:1021800046954770440F440F0D2F0F7010E030E05C
:1021900020E0042E04C0000F111F221F331F0A94D9
:1021A000D2F760E070E0CB01D4FF0FC06FE070E0C9
:1021B00080E090E004C0660F771F881F991F4A9542
:1021C000D2F76095709580959095C695C695C37029
:1021D000602B712B822B932BC23049F058F4C13005
:1021E00019F00E94BE15E9CE0E94AC15E6CE0E9401
:1021F000D015E3CE0E94AA15E0CE8695112311F0EA
:102200008C2F8170882309F4D8CE4D2F42954695A6
:102210004770440F440F0D2F0F7010E030E020E0A6
:10222000042E04C0000F111F221F331F0A94D2F77F
:1022300060E070E0CB01D4FF0FC06FE070E080E0A1
:1022400090E004C0660F771F881F991F4A95D2F748
:102250006095709580959095C695C695C370602BD6
:10226000712B822B932BC23049F058F4C13019F0F6
:102270000E948316A2CE0E9471169FCE0E949516D0
:102280009CCE0E94E61599CECF70112329F08C2F99
:102290000E940C168D2FDBCE8D2F0E94760F8C2F77
:1022A0000E942D168ACED23F89F160F4D03FC9F04A
:1022B000D13F29F1112309F442C0011166CE8C2FC0
:1022C0008F7121C0D33F39F1D43FA1F7112369F1B8
:1022D000CF718C2F0E940C1663E08C2F0E94121875
:1022E0006CCE112341F0053008F067CE8C2F8F7132
:1022F0000E94501662CE063008F05FCEF7CF8C2FCA
:102300008F71112369F20E940C1657CE8C2F8F719A
:102310001123C9F3C5CF112329F08C2F8F710E948F
:10232000F7154BCE0E94F21548CE81E00E94271887
:10233000023008F442CE82E00E9427183ECE0023ED
:1023400059F0D93309F0B2CE8FEF97EEE3E0815028
:102350009040E040E1F7A8CE8C2F8F71A1CF4C2F99
:102360004F706D2FC6010E9461070E94221525CE75
:102370004C2F4F706D2FC6010E9464071ECEDF9157
:10238000CF911F910F91FF90EF90DF90CF90BF9072
:1023900008950F931F93CF93DF93EC0168817981A8
:1023A0008A810E9447178C010E94A7160E94A915D6
:1023B000B801CE01DF91CF911F910F910C947D0F49
:1023C000CF93DF93EC018B819C81892B29F088814D
:1023D000998189238F3F19F4DF91CF910895CE0120
:1023E0000E940F078823C1F3CE010E94C911CE01BC
:1023F000DF91CF910C94DB060E94B0170E94C017AA
:102400000E94DC170E947D1D0E94D61B90E080E098
:102410000E94350D90E080E00C944B0D0E947917DE
:102420000C94FC110E94A0170C940E12E92FE29557
:10243000EF70E250EE3070F4F0E0E254F54D0C94A1
:10244000502A803F19F020F4883E20F481E008955E
:10245000843FE1F380E00895883EC0F3813FD1F7E7
:10246000F5CF93FB882780F908950E943D170C94BF
:102470001612CF93DF9300D000D00F92CDB7DEB706
:102480000F900F900F900F900F90DF91CF910895C4
:10249000CF93DF9300D000D000D0CDB7DEB7269623
:1024A0000FB6F894DEBF0FBECDBFDF91CF91089578
:1024B0001F93CF93DF93C091B00116E08091B101DB
:1024C0008C1304C0DF91CF911F910895D0E01C9F21
:1024D000F0011D9FF00D1124EE54FE4F40815181FB
:1024E00062817381848195810E9448122196C77010
:1024F000E5CF4091E2015091E3016091E4017091D8
:10250000E5018091E6019091E7010C9448121F9338
:10251000CF93DF938091E701807FA9F48091E4015C
:10252000882389F08091B001C091B1016091E201EE
:102530007091E301A091E501B091E601D62FD72378
:1025400016E0C81304C0DF91CF911F91089590E069
:10255000109711F0DF3F19F401968770F2CF189FA2
:102560009001199F300D1124F901EE54FE4F418165
:102570004713F2CF40814613EFCF42814111ECCF98
:10258000438154814A1B5B0B483C510528F78091DD
:10259000E7018F7080618093E701F901E954FE4FF4
:1025A00080818F708061808382EE91E00E94E011D3
:1025B000DF91CF911F910C945812AF92BF92CF929E
:1025C000DF92EF92FF920F931F93CF93DF93CDB7DC
:1025D000DEB761970FB6F894DEBF0FBECDBF8C019A
:1025E00085E0F801DE011D9601900D928A95E1F7D4
:1025F000F80140815181E28082EEC82E81E0D82E20
:102600006091E5017091E6016115710509F461C100
:102610009091E2012091E301892F82238F3F09F4F9
:1026200058C1A380B480F090E401F501E61BF70BDC
:10263000FF2009F4FCC08091E701382F307FE83C8F
:10264000F10508F0B2C0311179C0FE2C251323C06A
:10265000941321C0E1101FC08F7080618093E70147
:102660000E947912C6010E94E0118091E701F801F1
:1026700085838F2D61960FB6F894DEBF0FBECDBF58
:10268000DF91CF911F910F91FF90EF90DF90CF904E
:10269000BF90AF900895AB2829F0842F85238F3FFA
:1026A00009F033C180E0F82FF170DF2E80FF3CC0CD
:1026B0008091B0012091B10136E0821315C04D87A1
:1026C0005E878D859E850E943D17292F22952F704C
:1026D0002230F0F0243018F59F70F1F0F801958168
:1026E000907FD1F4D12C1EC090E0389FF001399F2B
:1026F000F00D1124EE54FE4F6181651306C0608118
:10270000641303C062816E110FC001968770D5CF2C
:102710009F7011F0882331F3805E883018F3C80170
:102720000E94E011FD2CA5CFEE2009F4A2CF8091EC
:10273000E70181608093E701F12C9BCF251306C050
:10274000941304C0F801EE2009F48DC04D875E8714
:102750008D859E850E943512882319F1EE2009F19E
:102760008091E701803270F02091E2013091E30125
:1027700038872F831986BB86AA868C87CE01079659
:102780000E94E01186E0F801A2EEB1E001900D9206
:102790008A95E1F70E9487120E947912FF24F39430
:1027A00068CFC8010E94E011F9CF311113C07A2D12
:1027B000B98AA88A6E2D89890E94391282EE91E029
:1027C0000E94E01186E0F60111928A95E9F70E94D5
:1027D0007912B2CF25130FC094130DC0E1100BC0B6
:1027E000F8018583C8010E94E01186E0F60111928C
:1027F0008A95E9F73ECF4D875E878D859E850E943D
:102800003512882371F2EE2061F28091E701803267
:1028100008F4B8CF2091E2013091E3013A83298393
:102820001B82BD82AC828E83CE010196A9CFE83C8B
:10283000F10508F041C0FE2CEE2009F4B2CF2513BB
:102840002AC0941328C08091E70180FD1BC0982FF7
:10285000907FC1F0F8018583903F31F0982F907FF1
:10286000905F8F70892B8583C8010E94E01186E0FC
:10287000F801A2EEB1E001900D928A95E1F70E9475
:102880007912F7CE86E0F801A2EEB1E001900D9248
:102890008A95E1F7EECE4D875E878D859E850E94F5
:1028A000351281116FCF8091E70181608093E7013C
:1028B000C8010E94E011DDCE7A2DB98AA88A6E2D5A
:1028C00089890E94391286E0F60111928A95E9F70A
:1028D000D6CFEE2009F465CF4D875E878D859E8526
:1028E0000E943512F82E882309F45BCF86E0F801A8
:1028F000A2EEB1E001900D928A95E1F782EE91E0AF
:102900000E946A0E0E948712BACF81E08E25CBCE3C
:102910001F93CF93DF93CDB7DEB72C970FB6F89404
:10292000DEBF0FBECDBF4F83588769877A878B87FD
:102930009C87CE0107960E94DD12882369F08A8564
:102940009B85892B39F04F815885842F85238F3FB4
:1029500009F071C016E05FC086E0FE013796DE0127
:10296000119601900D928A95E1F78A859B85892BB6
:1029700089F38F81988589238F3F61F32091B1017D
:1029800030E0C9010196877099274091B00148173E
:10299000190671F40E9412121092B1011092B00146
:1029A00086E0E2EEF1E0DF011D928A95E9F7D2CFF1
:1029B00096E0929FD001939FB00D1124AE54BE4F6C
:1029C000FE01319601900D929A95E1F78093B10145
:1029D0000E945812BFCF819FC00111248E549E4F78
:1029E0000E94DD128823E9F0E091B0011E9FF00102
:1029F0001124EE54FE4F40815181628173818481A4
:102A000095810E9448128091B00190E001968770F4
:102A100099278093B0018091B0019091B101891301
:102A2000DACF2C960FB6F894DEBF0FBECDBFDF9184
:102A3000CF911F91089569857A858B859C850E9429
:102A4000481288CFEF92FF920F931F93CF93DF939B
:102A50008C01892B81F0F12CEE24E394E80121967E
:102A6000F8018491843770F4843008F05FC08130BD
:102A7000B1F08230A1F1DF91CF911F910F91FF90C2
:102A8000EF900895853709F44CC008F43DC09CE7E9
:102A9000980F903780F78F770E94060F49C00E5F1E
:102AA0001F4FFE01849190E2980F983060F4877078
:102AB000FE2D01C0FF0F8A95EAF78F2F0E94B317F2
:102AC0000E94DC1702C00E946F0E8F2D815030F2E1
:102AD000EFE9FFE03197F1F700C00000F7CF0E5F9C
:102AE0001F4FFE01849190E2980F983050F4877048
:102AF000FE2D01C0FF0F8A95EAF78F2F0E94B917AC
:102B0000DFCF0E94060FE1CF0E5F1F4FFE01C49181
:102B1000C150D8F28FE99FE00197F1F700C00000A3
:102B2000F7CF0E5F1F4FFE01F490CFCF0E946F0EC4
:102B30008E01CBCF08950C949A150E949B1560933B
:102B4000FB017093FC018093FD019093FE010C94B6
:102B5000FC1108950C949D150F931F930091FB0198
:102B60001091FC012091FD013091FE01602B712B31
:102B7000822B932B1F910F910C949D150F931F93F4
:102B80000091FB011091FC012091FD013091FE01AB
:102B900060237123822393231F910F910C949D1521
:102BA0000F931F930091FB011091FC012091FD01F7
:102BB0003091FE0160277127822793271F910F9183
:102BC0000C949D150C949A150C94E2150E94E41532
:102BD0006093F7017093F8018093F9019093FA01E3
:102BE0000C94FC1160E070E0CB010C94E6150F939F
:102BF0001F9341E050E060E070E08A019B0104C057
:102C0000000F111F221F331F8A95D2F7C901B80187
:102C10001F910F910C94E6150F931F9341E050E024
:102C200060E070E004C0440F551F661F771F8A954F
:102C3000D2F78091F7019091F801A091F901B0913C
:102C4000FA018A019B01082B192B2A2B3B2BC90166
:102C5000B8011F910F910C94E6150F931F9341E05B
:102C600050E060E070E004C0440F551F661F771FFE
:102C70008A95D2F7CB01BA016095709580959095B1
:102C80000091F7011091F8012091F9013091FA01BA
:102C900060237123822393231F910F910C94E615D7
:102CA0000F931F9341E050E060E070E004C0440FD8
:102CB000551F661F771F8A95D2F78091F701909173
:102CC000F801A091F901B091FA018A019B0108274E
:102CD00019272A273B27C901B8011F910F910C948E
:102CE000E6150F931F930091F7011091F8012091C1
:102CF000F9013091FA01602B712B822B932B1F91DC
:102D00000F910C94E6150F931F930091F70110910A
:102D1000F8012091F9013091FA0160237123822397
:102D200093231F910F910C94E6150F931F9300911D
:102D3000F7011091F8012091F9013091FA01602713
:102D40007127822793271F910F910C94E615089500
:102D5000990F990F890F982F977041E001C0440F88
:102D60009A95EAF786958695869595E0899FF00174
:102D70001124E851FE4F30E020E070E05191DF0176
:102D80001197CB01022E02C0969587950A94E2F71F
:102D9000817081958527842385278C932F5F3F4FF2
:102DA0002530310559F70895990F990F890F982FFC
:102DB000977086958695869525E0829FF00111246F
:102DC000E851FE4F50E040E080E0219130E0092ED4
:102DD00002C0369527950A94E2F721703327042E16
:102DE00001C0220F0A94EAF7822B4F5F5F4F4530F4
:102DF000510559F70895BF92CF92DF92EF92FF925B
:102E00000F931F93CF93DF938C01C090F701D09065
:102E1000F801E090F901F090FA018091FB019091A6
:102E2000FC01A091FD01B091FE01C82AD92AEA2A2D
:102E3000FB2ACFE1D0E0BC2ED701C6010C2E04C086
:102E4000B695A795979587950A94D2F780FD0EC001
:102E5000219788F7B12C8B2DDF91CF911F910F9186
:102E6000FF90EF90DF90CF90BF900895B8018C2F26
:102E70000E948107019761F3EECFCF93DF93EC01BE
:102E80000E94FB16BE01DF91CF910C9481071F9326
:102E9000CF93DF93EB019091AF01992331F0CB01F8
:102EA000DF91CF911F910C943D17882379F0CB01CE
:102EB0000E94FB16182F682FCE010E94A816BE0193
:102EC000812FDF91CF911F910C948107CB010E943C
:102ED000D416182FF4CF682F809100019091010132
:102EE0000C944819682F80910001909101010C9475
:102EF0004A1980910001909101010C944C19809124
:102F0000FF0185958595859508958091FF018770CE
:102F100008959091FF01977081E009F480E0089591
:102F200080910B02089590910B02892B80930B02E4
:102F30000895809590910B02982390930B02089529
:102F400010920B02089590910A02892B80930A0235
:102F50000895809590910A02982390930A0208950B
:102F600010920A02089590910902892B8093090218
:102F700008958095909109029823909309020895ED
:102F800010920902089580910002089508950C940A
:102F9000C61790910002981721F0809300020C94BC
:102FA000C717089580910002882329F0109200022B
:102FB00080E00C94C7170895E0910001F0910101A1
:102FC00080910B028083E0910001F09101018081EA
:102FD00090910A02892B8083E0910001F091010118
:102FE000808190910902892B80839091000299231E
:102FF00081F0E0910001F09101018081892B8083B3
:1030000080910001909101010E94001981110E949C
:10301000D21780910001909101010C94DB0C08956E
:103020000C940F1898E0899F90011124622B6093F3
:10303000FF010E940C168091FF018595859585956D
:103040000C9410181092FF0180E00C9410189091CD
:10305000FF01809589238093FF01282F277071F449
:10306000282F082E000C330B9217130639F0859584
:10307000859585950E942D160C942218089590939D
:103080009B0180939A010895829590E09C01220F04
:10309000331F220F331F2C7C959587959595879527
:1030A0008373282B30E0C901880F991F8A7A3595E0
:1030B00027952575822B089590E080E00E94722A62
:1030C00021E08C3E9E4F09F020E0822F089582E09F
:1030D00090E00C946A2A83E090E00C946A2ACF93E3
:1030E00084E090E00E946A2AC82F81E290E00E946A
:1030F0006A2A982F8C2FCF910895CF93C92F682FCC
:1031000084E090E00E94782A6C2F81E290E0CF91D9
:103110000C94782AAB01BC018FE090E00C948A2AD1
:10312000AB01BC0183E190E00C948A2A60E070E07E
:10313000CB010C94901860E070E0CB010E948A18DB
:103140000C9496186CEE7EEF90E080E00E94962A38
:1031500060E082E090E00E94782A60E083E090E006
:103160000E94782A1092FB011092FC011092FD013E
:103170001092FE0160E084E090E00E94782A60E016
:1031800081E290E00E94782A60E085E090E00E9471
:10319000782A60E086E090E00E94782A6FEF87E06E
:1031A00090E00E94782A40E050E0BA0188E090E088
:1031B0000E948A2A60E08DE090E00E94782A40E038
:1031C00050E0BA0188E190E00E948A2A60E087E13D
:1031D00090E00E94782A40E050E0BA018CE190E053
:1031E0000E948A2A60E080E290E00E94782A0C9493
:1031F0009B180C94A218682F8EE090E00C94782A0B
:103200009C012E5F3F4FAC01485F5F4F80E0241769
:10321000350709F40895F90191919F019923B9F3B4
:103220008F5FF5CF662349F0FC0132960896219115
:10323000261729F0E817F907D1F780E0089581E013
:1032400008959C01FC0132969FEF80E04191461762
:1032500051F09F3F19F4411101C0982F8F5F8630C4
:10326000A9F79F3F09F40895290F311D97FD3A955D
:10327000F90162830895FC01329608962191261384
:1032800003C0DF0111971C92E817F907B9F70895F9
:103290000C9421190C943B19029626E0FC01119222
:1032A0002A95E9F70895089508950C9454190E94F9
:1032B000551980914202843049F110920D0288E143
:1032C00090E020E40FB6F894A895809360000FBEBC
:1032D0002093600080E00E94F7060E94551983B792
:1032E000817F846083BF83B7816083BF7894889532
:1032F00083B78E7F83BF0FB6F894A8958091600046
:10330000886180936000109260000FBE0895089558
:10331000CF930E9453190E94180A0E948719C0E097
:103320008C2F0E947409811105C0CF5FC530C1F791
:10333000CF91089581E0FCCF08950C949C190E94D0
:1033400012120E94CF0C0E94F7060C949D191F9236
:103350001FB61F9211248F939F93AF93BF938091B9
:103360000D02811113C08091380290913902A09111
:103370003A02B0913B024196A11DB11D80933802E3
:1033800090933902A0933A02B0933B02BF91AF9160
:103390009F918F911F901FBE1F90189582E084BD52
:1033A00093E095BD9AEF97BD80936E0008952FB777
:1033B000F8948091380290913902A0913A02B0912C
:1033C0003B022FBF08952FB7F89460913802709197
:1033D000390280913A0290913B022FBF08959C01DF
:1033E0004FB7F8948091380290913902A0913A0237
:1033F000B0913B024FBF821B930B089578941F92AC
:103400001FB61F9211248F939F93AF93BF93809108
:10341000380290913902A0913A02B0913B02019694
:10342000A11DB11D8093380290933902A0933A02F6
:10343000B0933B02BF91AF919F918F911F901FBEA0
:103440001F901895F89481E08093E00080E28093CB
:10345000D800E9ECF0E010828FE19EE40197F1F7EB
:1034600000C000001DBA109268001CBC10BE1FBA3C
:1034700010927A0010926E0010926F0010927100FC
:10348000109272001082ECEBF0E0108214B817B8C2
:103490001AB81DB810BA108215B818B81BB81EB8E3
:1034A00011BA0C94003F08950E945C18811102C06B
:1034B0000E94F9180E94671880930C020E946F18EE
:1034C00090933D0280933C020E946B18682F70E03D
:1034D00090E080E00C94AA158091150280FF12C044
:1034E0006091070185E0689FB0011124759567958B
:1034F0007595679560387105A8F561157105A1F19D
:10350000862F089581FF09C06091070185E0689FBB
:10351000B001112475956795EDCF6091070182FD8B
:103520000AC0809114028823D1F090910601609125
:103530000701891728F085E0689FB0011124DACFD0
:10354000869FB001112485E0869F9001879F300DF2
:103550001124692F70E0C9010E943C2ACBCF65E09D
:1035600070E0CECF8FE7089581E008958091150235
:1035700080FF0CC06091030170E0759567957595AB
:1035800067956115710549F1862F089581FF06C081
:103590006091030170E075956795F3CF6091030129
:1035A00082FD0BC0909114029923A1F06091020159
:1035B00080910301961738F0682F70E0603871052C
:1035C00000F38FE70895899FC001112470E00E94E5
:1035D0003C2AF4CF61E070E0D7CF81E00895803FCE
:1035E00031F40E946C1A8195809319020895813FED
:1035F00019F40E946C1AF8CF823F31F40E946C1AC1
:103600008195809318020895833F19F40E946C1AE3
:10361000F8CF893F29F40E94B61A80931A020895C0
:103620008A3F21F40E94B61A8195F7CF8B3F31F47F
:103630000E94B61A819580931B0208958C3F19F45D
:103640000E94B61AF8CF843F31F48091170281604E
:10365000809317020895853F21F4809117028260BC
:10366000F7CF863F21F4809117028460F1CF873F26
:1036700021F4809117028860EBCF883F21F480917C
:1036800017028061E5CF8D3F31F480911502816092
:103690008093150208958E3F21F480911502826077
:1036A000F7CF8F3FB9F7809115028460F1CF9091E9
:1036B0001802803F41F48091190287FD109219028F
:1036C000992371F00895813F29F480911902181609
:1036D000ACF3F6CF823F81F497FFF2CF109218023D
:1036E0008091190290911A02892B90911B02892BCB
:1036F00049F7109214020895833F19F4191674F3D0
:10370000DFCF893F39F480911A021816CCF6109257
:103710001A02D6CF8A3F29F480911A0287FFD0CFB0
:10372000F6CF8B3F39F480911B0287FFC9CF1092EF
:103730001B02C6CF8C3F29F480911B021816BCF3E4
:10374000BFCF843F31F4809117028E7F80931702A0
:10375000B7CF853F21F4809117028D7FF7CF863F49
:1037600021F4809117028B7FF1CF873F21F4809164
:103770001702877FEBCF883F21F4809117028F7E5D
:10378000E5CF8D3F31F4809115028E7F8093150235
:1037900097CF8E3F21F4809115028D7FF7CF8F3F19
:1037A00009F08ECF809115028B7FF0CF80910C02B3
:1037B00083FF7EC080E791E00E94F20580911702AE
:1037C0001F928F938BE691E09F938F930E948B06BD
:1037D00089E691E00E94F20580911802282F082EB8
:1037E000000C330B3F938F9386E691E09F938F936A
:1037F0000E948B0684E691E00E94F20580911902F6
:10380000282F082E000C330B3F938F9381E691E015
:103810009F938F930E948B068FE591E00E94F205A3
:1038200080911A02282F082E000C330B3F938F93A0
:103830008CE591E09F938F930E948B068AE591E03F
:103840000E94F20580911B02282F082E000C330BDA
:103850003F938F9387E591E09F938F930E948B0610
:1038600084E591E00E94F205809114021F928F93EB
:1038700081E591E09F938F930E948B068FE491E006
:103880000E94F205809115021F928F938CE491E0C3
:103890009F938F930E948B0689E491E00E94F2052A
:1038A0008DB79EB74C960FB6F8949EBF0FBE8DBFD6
:1038B00086E192E00E94270D0E94D719909313028F
:1038C000809312020895CF93DF9300D000D000D0F0
:1038D000CDB7DEB786E0E6E1F2E0DE0111960190B9
:1038E0000D928A95E1F78091180290911902892B27
:1038F00081F080911002909111020E94EF19AC01A9
:1039000090911402992331F18091080184171506D2
:1039100070F180911A0290911B02892B91F0809195
:103920000E0290910F020E94EF19AC0190911402C7
:10393000992309F478C0809104018417150608F4CE
:1039400080C026960FB6F894DEBF0FBECDBFDF91C4
:10395000CF910895209109018AE0289F90011124B8
:1039600024173507B0F69F5F9093140202C09F3F63
:10397000D1F710921A0210921B02809118021816A9
:1039800024F40E946C1A809318028091180287FF19
:1039900005C00E946C1A81958093180280911902CB
:1039A000181624F40E946C1A80931902809119024F
:1039B00087FF05C00E946C1A81958093190230918F
:1039C00018023323A1F020911902222381F045EB44
:1039D0003403C00111249923F1F09093180245EBB0
:1039E0002403900111243323D1F0309319020E9453
:1039F000D61B809112029091130290931102809332
:103A0000100286E0FE013196A6E1B2E001900D922F
:103A10008A95E1F77ECF81E080931802E0CF81E0C4
:103A200080931902E4CF209105018AE0289F90013C
:103A300011242417350708F084CF9F5F9093140258
:103A400002C09F3FD1F71092180210921902809184
:103A50001A02181624F40E94B61A80931A02809152
:103A60001A0287FF05C00E94B61A819580931A0238
:103A700080911B02181624F40E94B61A80931B0230
:103A800080911B0287FF05C00E94B61A8195809322
:103A90001B0230911A023323A1F020911B02222332
:103AA00081F045EB3403C00111249923F1F0909388
:103AB0001A0245EB2403900111243323D1F03093F3
:103AC0001B020E94D61B80911202909113029093C8
:103AD0000F0280930E0286E0FE013196A6E1B2E06D
:103AE00001900D928A95E1F72CCF81E080931A0224
:103AF000E0CF81E080931B02E4CF86E0E6E1F2E0D4
:103B0000DF011D928A95E9F71092140210921502B6
:103B1000089583E993E00E94F2051F9281E08F935C
:103B20001F9285E08F9385E493E09F938F930E948B
:103B30008B060F900F900F900F900F900F9008959D
:103B4000833009F445C028F4813061F0823049F1B6
:103B50000895853009F46AC008F451C0863009F42C
:103B60007CC0089580910901482F460F5527551FA5
:103B70004F3F510594F4680F60930901809109014A
:103B80001F928F938EE792E09F938F930E948B06F4
:103B90000F900F900F900F9008958FEF8093090171
:103BA000EDCF80910801482F460F5527551F4F3FF5
:103BB000510554F4680F60930801809108011F9229
:103BC0008F938CE692E0E0CF8FEF80930801F5CFE2
:103BD00080910701482F460F5527551F4F3F51052C
:103BE00054F4680F60930701809107011F928F932F
:103BF00089E592E0C9CF8FEF80930701F5CF8091DF
:103C00000601482F460F5527551F4F3F510554F4C5
:103C1000680F60930601809106011F928F9384E4E0
:103C200092E0B2CF8FEF80930601F5CF8091030130
:103C3000482F460F5527551F4F3F510554F4680F25
:103C400060930301809103011F928F938BE292E0B6
:103C50009BCF8FEF80930301F5CF80910201482F16
:103C6000460F5527551F4F3F510554F4680F609379
:103C70000201809102011F928F9380E192E084CF34
:103C80008FEF80930201F5CF8330C9F128F48130A2
:103C900061F0823019F10895853009F452C008F4BA
:103CA0003FC0863009F45EC008958091090168170D
:103CB00090F4861B80930901809109011F928F93D4
:103CC00081E092E09F938F930E948B060F900F905C
:103CD0000F900F90089510920901EECF8091080186
:103CE000681750F4861B80930801809108011F9289
:103CF0008F938FEE91E0E6CF10920801F6CF80917E
:103D00000701681750F4861B809307018091070113
:103D10001F928F938CED91E0D5CF10920701F6CFD3
:103D200080910601681750F4861B809306018091EC
:103D300006011F928F9387EC91E0C4CF1092060189
:103D4000F6CF80910301681750F4861B809303011E
:103D5000809103011F928F938EEA91E0B3CF10926E
:103D60000301F6CF80910201681750F4861B8093FF
:103D70000201809102011F928F9383E991E0A2CF0B
:103D800010920201F6CFCF93C82F1F928F9388E92C
:103D900094E09F938F930E948B0661E070E080E037
:103DA00090E004C0660F771F881F991FCA95D2F74D
:103DB0000E94AA150F900F900F900F90CF910C9426
:103DC0001212CF93DF938B3109F4FEC108F0A0C12A
:103DD0008B3009F4BCC108F06AC1863009F4CAC14D
:103DE00048F4853009F4A2C188E399E00E94F20505
:103DF00080E0D0C1873009F4D0C18830A9F787EDC1
:103E000099E00E94F20588E299E00E94F2050E9482
:103E10006B181F928F9385E299E09F938F930E9476
:103E20008B0683E299E00E94F2050E946718C82F72
:103E300080E199E00E94F2051F92CF938BE099E018
:103E40009F938F930E948B0689E099E00E94F20570
:103E50008FEF98E00E94F2058C2F81701F928F9354
:103E60008CEF98E09F938F930E948B068AEF98E0E7
:103E70000E94F20580EF98E00E94F205C1FB8827BE
:103E800080F91F928F938DEE98E09F938F930E94FD
:103E90008B068BEE98E00E94F2058FED98E00E9471
:103EA000F205C2FB882780F91F928F938CED98E072
:103EB0009F938F930E948B068AED98E00E94F205F3
:103EC00081ED98E00E94F205C3FBCC27C0F91F9258
:103ED000CF938EEC98E09F938F930E948B068CEC8F
:103EE00098E00E94F2050E946F18EC0188EB98E0C0
:103EF0000E94F205DF93CF9383EB98E09F938F931B
:103F00000E948B0681EB98E00E94F20588E998E018
:103F10000E94F2058C2F81701F928F9385E998E0A3
:103F20009F938F930E948B068DB79EB780960FB696
:103F3000F8949EBF0FBE8DBF83E998E00E94F20502
:103F40008CE798E00E94F205C1FB882780F91F9258
:103F50008F9389E798E09F938F930E948B0687E762
:103F600098E00E94F20585E698E00E94F2058D2F08
:103F700081701F928F9382E698E09F938F930E94A7
:103F80008B0680E698E00E94F2058EE498E00E949D
:103F9000F205D695D1701F92DF938BE498E09F9342
:103FA0008F930E948B0689E498E00E94F20587E3D4
:103FB00098E00E94F205C2FB882780F91F928F9338
:103FC00084E398E09F938F930E948B0682E398E0AE
:103FD0000E94F20580E298E00E94F205C3FB882768
:103FE00080F91F928F938DE198E09F938F930E94A9
:103FF0008B068BE198E00E94F20581E198E00E9437
:10400000F205C4FB882780F91F928F938EE098E019
:104010009F938F930E948B068CE098E00E94F2059C
:104020008AEF97E00E94F205C5FB882780F91F926E
:104030008F9387EF97E09F938F930E948B0685EF76
:1040400097E00E94F20589ED97E00E94F205C6FB19
:10405000882780F91F928F9386ED97E09F938F9327
:104060000E948B068DB79EB780960FB6F8949EBFC0
:104070000FBE8DBF84ED97E00E94F2058CEC97E0B7
:104080000E94F205C7FBCC27C0F91F92CF9389ECA1
:1040900097E09F938F930E948B0687EC97E00E9496
:1040A000F2050F900F900F900F9081E073C0803158
:1040B00009F4A2C080F48E3009F096CE90910C02E3
:1040C000892F8B7F92FF846080930C0282FF91C0C6
:1040D00083E699E085C0863109F49EC0893109F0F4
:1040E00083CE8EEE95E00E94F20582ED95E00E946F
:1040F000F20589E995E00E94F20586E695E00E94C6
:10410000F20581E395E00E94F20586E095E021C08A
:104110008A3249F190F4873211F128F48E3108F493
:1041200063CE8D511DC0893209F05ECE86EA99E0DA
:104130000E94F2050E940007B8CF833468F48A33E6
:1041400008F0A1C0853359F0883309F04DCE84E2E0
:1041500096E00E94F205A9CF833409F045CE80E0B5
:104160000E94C31EA2CF86EC99E00E94F2050E9435
:10417000F9189BCF80910C02807F80930C028DEF09
:1041800095E00E94F20582EC99E00E94F20581E040
:1041900080931D02DF91CF91089590910C02892F99
:1041A0008E7F90FF816080930C0280FF03C08AE9BC
:1041B00099E0CFCF8DE899E00E94F20580910C0242
:1041C000817F80930C0271CF90910C02892F8D7F9B
:1041D00091FF826080930C0281FF08C080E899E023
:1041E0000E94F20580910C028160EBCF82E799E09A
:1041F000B0CF83E599E0ADCF90910C02892F877FF6
:1042000093FF886080930C0283FF03C087E499E0EA
:10421000E7CF8AE399E09DCF88EF94E00E94F20512
:104220000E94CF0C1F928F938EED94E09F938F93FB
:104230000E948B06809114011F928F9387EC94E06B
:104240009F938F930E948B0680912A021F928F93D7
:1042500084EB94E09F938F930E948B060E94E31956
:104260009F938F937F936F938DE994E09F938F93A8
:104270000E948B068DB79EB742960FB6F8949EBFEC
:104280000FBE8DBF12CF89536BCF80E008950C9481
:1042900045218E518A3030F4E82FF0E0E058FE4F8F
:1042A0008081089580E00895CF93C82F80911D02EA
:1042B0008130C1F0882339F0823009F447C0109270
:1042C0001D0280E00DC00E9490178232D1F78C2F22
:1042D0000E94452181111BC08C2F0E94E11E81701C
:1042E000CF9108950E949017823289F38C2F0E94FB
:1042F000472181111BC0C431D9F060F4CB3071F07B
:10430000C031D1F08EE894E00E94F20513C081E044
:1043100090E0E5CFC93261F0C833A1F78DEF95E0A9
:104320000E94F20584E994E00E94F20581E0D7CF73
:1043300010921D0280E0D3CF0E94891D80E994E095
:104340000E94F20582E080931D02F0CFC432C8F4CF
:10435000CE3108F0BEC0CB30E1F040F4C73009F4F4
:10436000CCC082E393E00E94F20526C0C331C1F1C4
:10437000C431B9F780911C02882351F110921C02BC
:104380000AC0CB3409F4B7C0C8F4C93299F3C833B2
:1043900041F70E94891D80911C02882309F4C4C042
:1043A0001F928F938CE293E09F938F930E948B06D2
:1043B0000F900F900F900F9081E092CFC13509F4CC
:1043C00094C0C23509F48BC0CE3459F66AE08EC071
:1043D00081E493E00E94F20581E080931D0280CF8A
:1043E0008BE193E00E94F20589E093E00E94F205E0
:1043F000809109011F928F9386E093E09F938F93A2
:104400000E948B0684E093E00E94F20582EF92E026
:104410000E94F205809108011F928F938FEE92E027
:104420009F938F930E948B068DEE92E00E94F2057F
:104430008EED92E00E94F205809107011F928F930A
:104440008BED92E09F938F930E948B0689ED92E013
:104450000E94F20588EC92E00E94F205809106012C
:104460001F928F9385EC92E09F938F930E948B060F
:1044700083EC92E00E94F2058EEA92E00E94F2053F
:10448000809103011F928F938BEA92E09F938F9309
:104490000E948B0689EA92E00E94F20582E992E08E
:1044A0000E94F205809102011F928F938FE892E0A3
:1044B0009F938F930E948B068DE892E00E94F205F5
:1044C0008DB79EB748960FB6F8949EBF0FBE8DBFAE
:1044D00062CF8C2F0E94492180931C025CCF61E047
:1044E00080911C020E94A01D56CF61E080911C02A9
:1044F0000E94441E50CF6AE0F3CF8EE18093090101
:1045000082E3809308018AE08093070184E180932D
:10451000060188E08093030188E28093020184E32E
:1045200093E00E94F20537CF89E293E01CCF80919F
:10453000290208959FB7F894109220029FBF90918E
:104540004202943009F048C02091E9002F70309168
:10455000EC00932F917030FD90E8922B23E0209394
:10456000E9002091EB0020FF34C02091EE0027FFEE
:1045700030C020911E02222321F02091E80025FF67
:1045800028C010921E0226E03091E80035FF14C0CA
:104590008093F1008091E80085FD27C08091E800BC
:1045A00080FFFCCF8091E8008E778093E8009F70B9
:1045B0009093E90080E0089530914202343049F44C
:1045C0003091EB0035FD05C0215041F481E080932E
:1045D0001E029F709093E9008FEF0895EFE9FFE0CE
:1045E0003197F1F700C00000CFCF8FB7F89421E0EA
:1045F000209320028FBFDBCFCF93DF9300D00F92A9
:10460000CDB7DEB790914202943019F589837B8350
:104610006A8382E08093E9008FEF9091E8008150F7
:1046200095FD06C095ED9A95F1F700008111F5CF43
:104630008091E80085FF0DC050E040E063E070E04D
:10464000CE0101960E94A0258091E8008E7780938C
:10465000E8000F900F900F90DF91CF910895CF93C6
:10466000DF93EC010E948325823011F0843031F415
:10467000BE0184E0DF91CF910C94FC22DF91CF91B9
:104680000895BC0183E00C94FC22CF93DF93EC01EE
:104690000E948325823011F08430F9F482E0809307
:1046A000E9008FEF9091E800815095FD06C095EDEF
:1046B0009A95F1F700008111F5CF8091E80085FF10
:1046C0000CC050E040E066E070E0CE010E94A02502
:1046D0008091E8008E778093E800DF91CF91089574
:1046E000CF93DF93EC010E948325823011F0843058
:1046F00039F581E08093E9008FEF9091E8008150D7
:1047000095FD06C095ED9A95F1F700008111F5CF62
:104710008091E80085FF14C050E040E068E070E060
:10472000CE010E94A0258091E8008E778093E8005A
:1047300088E0FE01A1E2B2E001900D928A95E1F7D6
:10474000DF91CF91089587E09AE00E94F205809171
:104750004102811109C00E9430270E948D2780915B
:10476000E20084608093E200089583E09AE00E9472
:10477000F2051092410208958FEF99E00C94F20532
:104780008BEF99E00C94F20587EF99E00E94F20517
:104790000C949F1920911F022F5F822F62E30E94C9
:1047A000302A992319F020931F02089510921F02B6
:1047B000809120028823F1F0809142028430C1F47C
:1047C0009091E9009F702091EC00822F817020FD74
:1047D00080E8892B93E09093E9009091EB0090FFA3
:1047E00004C09091EE0097FD08C08F708093E9009F
:1047F0001092200208951092F1009091E80095FD2A
:10480000FACF9091E80090FFF0CF9091E8009E776A
:104810009093E800EACF42E061EC81E00E94AC2690
:1048200042E261EC82E00E94AC2642E261EC83E06D
:104830000C94AC2680914402833009F45FC030F4BC
:104840008130C1F1823009F49BC008958A3009F4A7
:1048500087C08B3009F46DC0893009F04EC080915B
:104860004302813209F049C0809147029091480289
:10487000029708F042C08091E800877F8093E800AB
:104880008091E80082FF35C09091F3008091F200A2
:10489000029729F48091F1008B7F813021F480917F
:1048A000F100809329028091E8008B778093E800E3
:1048B0000C94E02680914302813AF9F48091E8005B
:1048C000877F8093E8008091470290914802892B6E
:1048D00061F468E081E292E070E00E94EF2580914F
:1048E000E8008B778093E800089560E090E080E036
:1048F000F3CF809142028111C3CF0895809143028A
:10490000813AD9F78091470290914802892BA9F703
:104910008091E800877F8093E8008091E80080FF25
:10492000FCCF809114018093F1008091E8008E7794
:10493000BDCF80914302813201F78091470290916F
:104940004802892BD1F68091E800877F8093E800A8
:104950000E94E02680914502809314010C9412126B
:1049600080914302813249F68091E800877F8093ED
:10497000E8000E94E0268091460280932A02089572
:1049800080914302813A09F0B8CF8091E800877F97
:104990008093E8008091E80080FFFCCF80912A029C
:1049A000C2CF84B7877F84BF0FB6F894A895809153
:1049B0006000886180936000109260000FBE80E804
:1049C00090E00FB6F89480936100909361000FBE61
:1049D0000E946F0D0E9430270E948D278091E20077
:1049E00084608093E2008AE992E20E943F18789402
:1049F0000E94152A0E94790D8AE091E00E94CA0C5B
:104A000086EE99E00E94F20580914202853019F00D
:104A10000E94A90DF9CF82EE99E00E94F2050E9452
:104A2000571980914002882379F30E9488198823BE
:104A300059F30E948A25E8CF0C941E25292F33278D
:104A40002330310521F168F42130310509F449C0E2
:104A50002230310509F44AC090E080E030E020E0E7
:104A600029C02132310581F122323105A9F76330A5
:104A7000710590F7FB01EE0FFF1FE357FE4F2081FA
:104A8000318166577E4FFB01808190E013C09927EA
:104A90008130910599F0009741F08230910589F0BD
:104AA0000397D1F6EBE0FAE002C0E9E3FAE0849183
:104AB00090E09F01FA01318320830895E7E2FAE054
:104AC000F6CFE1E1FAE0F3CF6330710528F6660F27
:104AD000771FFB01ED56FE4F2081318189E090E088
:104AE000E9CF82E190E028E93AE0E4CF8BE590E07D
:104AF0002DE33AE0DFCF80914202843011F482E06E
:104B0000089581E0089580912B02811102C00C94D8
:104B10007B25089580E189BD82E189BD09B400FE4D
:104B2000FDCF8091D8008F7D8093D8008091E000E8
:104B300082608093E0008091E00081FDFCCF0895C9
:104B4000AF92BF92CF92DF92FF920F931F93CF93BA
:104B5000DF936C01EB018A010E94FF26F82E811180
:104B600023C00115110539F0F80180819181C81B1E
:104B7000D90BC80ED91EB12CA12C2097A9F0809179
:104B8000E80085FD22C08091E8008E778093E800E0
:104B900001151105A1F0F80180819181A80EB91EBF
:104BA000B182A08285E0F82E8F2DDF91CF911F91E9
:104BB0000F91FF90DF90CF90BF90AF9008950E942B
:104BC000FF268823D1F2F82EEFCFF60181916F01F5
:104BD0008093F1002197FFEFAF1ABF0ACECFFC01FF
:104BE0008091490290914A0286179707A0F06115BB
:104BF000710529F49091E8009E779093E80090E089
:104C00006115710551F4911108C08091E80082FF8F
:104C100034C080E00895BC01F2CF80914202882325
:104C2000C1F18530C1F18091E80083FD30C08091F1
:104C3000E80082FDEACF8091E80080FFE1CF80911B
:104C4000F3002091F200382F6115710519F028301A
:104C5000310558F091E02830310509F090E02091BD
:104C6000E8002E772093E800CBCF81918093F1006C
:104C7000615071092F5F3F4FE7CF80914202882337
:104C800041F0853041F08091E80083FFBECF81E0A4
:104C9000089582E0089583E00895FC01809149021F
:104CA00090914A0286179707A0F06115710529F4C3
:104CB0008091E8008E778093E80090E0611571059F
:104CC00051F4911108C08091E80082FF35C080E066
:104CD0000895BC01F2CF809142028823C9F185304A
:104CE000C9F18091E80083FD31C08091E80082FD28
:104CF000EACF8091E80080FFE1CF8091F30020911E
:104D0000F200382F6115710519F02830310558F07F
:104D100091E02830310509F090E08091E8008E772D
:104D20008093E800CBCF84918093F100319661505D
:104D300071092F5F3F4FE6CF80914202882341F0F7
:104D4000853041F08091E80083FFBDCF81E0089578
:104D500082E0089583E00895982F973028F08F70AF
:104D60008093E90081E008959093E900242F762F45
:104D700050E0981731F07091EC002091ED005091C7
:104D8000F00021FD02C09F5FE8CF3091EB003E7F35
:104D90003093EB003091ED003D7F3093ED0030918A
:104DA000EB0031603093EB007093EC002093ED004A
:104DB0005093F0002091EE0027FDE5CF80E00895AC
:104DC0008091430287FF13C08091E80082FF06C0F4
:104DD0008091E8008B778093E80004C080914202C4
:104DE0008111F2CF0895809142028823D9F38091F6
:104DF000E80080FFF8CF8091E8008E77ECCF20911B
:104E0000E4003091E50095E6A9012091EC00822FA5
:104E1000817020FF06C08091E80080FF06C080E01E
:104E200008952091E80022FD1AC080914202882353
:104E300089F0853089F08091EB0085FD0FC02091CD
:104E4000E4003091E50042175307F9F29150E1F682
:104E500084E0089582E0089583E0089581E0089554
:104E60000E949E270E94A627E0EEF0E080818160EC
:104E70008083E8EDF0E080818F77808319BCA7ED17
:104E8000B0E08C918E7F8C9380818F7E8083109296
:104E9000410208950F931F93CF93DF930E949E27A3
:104EA0000E94A627C8EDD0E088818F77888388810B
:104EB0008068888388818F7D888319BC1092420224
:104EC00010923E021092400210923F0200EE10E05B
:104ED000F80180818B7F808388818160888342E0B4
:104EE00060E080E00E94AC26E1EEF0E080818E7F01
:104EF0008083E2EEF0E08081816080838081886041
:104F00008083F80180818E7F80838881806188839F
:104F1000DF91CF911F910F910895E8EDF0E080812E
:104F20008F7E8083E7EDF0E080818160808384E084
:104F300082BF81E0809341020C944A27E8EDF0E0C3
:104F400080818E7F80831092E20008951092DA00B3
:104F50001092E10008951F920F920FB60F92112444
:104F60002F933F934F935F936F937F938F939F9371
:104F7000AF93BF93EF93FF938091E10082FF0BC04B
:104F80008091E20082FF07C08091E1008B7F8093D7
:104F9000E1000E94CA238091DA0080FF19C080914D
:104FA000D80080FF15C08091DA008E7F8093DA00F0
:104FB0008091D90080FF96C080E189BD82E189BDE2
:104FC00009B400FEFDCF81E0809342020E94A3233A
:104FD0008091E10080FF19C08091E20080FF15C040
:104FE0008091E2008E7F8093E2008091E2008061F8
:104FF0008093E2008091D80080628093D80019BC31
:1050000085E0809342020E94C0238091E10084FFEA
:105010002BC08091E20084FF27C080E189BD82E13E
:1050200089BD89B5982F917080FFFBCF8091D80002
:105030008F7D8093D8008091E1008F7E8093E10086
:105040008091E2008F7E8093E2008091E200816097
:105050008093E20080913E02882309F449C084E0F5
:10506000809342020E94C4238091E10083FF29C003
:105070008091E20083FF25C08091E100877F8093CB
:10508000E10082E08093420210923E028091E100B2
:105090008E7F8093E1008091E2008E7F8093E2001A
:1050A0008091E20080618093E20042E060E080E075
:1050B0000E94AC268091F00088608093F0000E94EE
:1050C000BC23FF91EF91BF91AF919F918F917F9101
:1050D0006F915F914F913F912F910F900FBE0F9065
:1050E0001F90189519BC109242020E94B52370CFF0
:1050F0008091E30087FD93E090934202B3CF1F922B
:105100000F920FB60F9211242F933F934F935F93FB
:105110006F937F938F939F93AF93BF93CF93DF93BF
:10512000EF93FF93D091E900DF708091EC00C82FDE
:10513000C17080FDC0E81092E9008091F000877F87
:105140008093F00078940E94C3281092E900809127
:10515000F00088608093F000CD2BCF70C093E90001
:10516000FF91EF91DF91CF91BF91AF919F918F917F
:105170007F916F915F914F913F912F910F900FBE53
:105180000F901F9018951F93CF93DF93CDB7DEB785
:10519000AA970FB6F894DEBF0FBECDBF83E492E0AE
:1051A0002091F100FC012193CF01F2E08B349F07A5
:1051B000B9F70E941A248091E80083FF1EC18091F4
:1051C0004302909144029A3008F017C1E92FF0E0B1
:1051D000E453F54D0C94502A803899F0823809F048
:1051E0000CC1809147028F70873008F006C1809310
:1051F000E9008091EB0085FB882780F91092E90097
:1052000006C080913F02909140029111826090917E
:10521000E800977F9093E8008093F1001092F100EE
:105220008091E8008E77E5C0882309F4D3C08230EE
:1052300009F0E3C0809145028111D6C080914702F8
:105240008F702FEF280F263008F0D7C08093E90029
:105250002091EB0020FFC8C0933031F48091EB0027
:1052600080628093EB00C0C09091EB0090619093BE
:10527000EB0021E030E001C0220F8A95EAF720938D
:10528000EA001092EA008091EB008860EACF811179
:10529000B4C0109145021F778091E3008078812B84
:1052A0008093E3008091E800877F8093E8000E946C
:1052B000E0268091E80080FFFCCF8091E3008068C9
:1052C0008093E30082E0111183E08093420295C055
:1052D0008058823008F091C080914502909146023A
:1052E0008C3D23E09207A1F583E08A838AE28983DB
:1052F0004FB7F894DE01139620E03EE051E2E32F31
:10530000F0E050935700E49120FF03C0E295EF7066
:105310003F5FEF708E2F90E0EA30C0F0C7968D931C
:105320009D932F5F243159F74FBF8091E800877F0D
:105330008093E8006AE270E0CE0101960E94EF25BA
:105340008091E8008B778093E80057C0C096E7CF44
:105350006091470270914802AE014F5F5F4F0E941B
:105360001C25BC01892B09F448C09091E800977F67
:105370009093E80089819A810E944D26E1CF803880
:10538000E1F58091E800877F8093E80080913E02FC
:105390008093F10045CF811130C090914502923049
:1053A00060F58091E800877F8093E80090933E024B
:1053B0000E94E02680913E02882311F084E005C01F
:1053C0008091E30087FDFACF81E0809342020E9442
:1053D0000B2413C080914502813079F481E0933031
:1053E00009F080E0809340021092E9008091E8008B
:1053F000877F8093E8000E94E0268091E80083FF89
:105400000AC08091E800877F8093E8008091EB00DC
:1054100080628093EB00AA960FB6F894DEBF0FBEB1
:10542000CDBFDF91CF911F910895CF93809142021C
:105430008823A1F0C091E900CF709091EC00892FF2
:10544000817090FD80E8C82B1092E9008091E800FF
:1054500083FD0E94C328CF70C093E900CF910895C7
:10546000991B79E004C0991F961708F0961B881FB6
:105470007A95C9F78095089597FB072E16F4009446
:1054800007D077FD09D00E94562A07FC05D03EF4CC
:10549000909581959F4F0895709561957F4F0895E0
:1054A000EE0FFF1F0590F491E02D0994AA1BBB1B82
:1054B00051E107C0AA1FBB1FA617B70710F0A61B14
:1054C000B70B881F991F5A95A9F780959095BC0135
:1054D000CD010895F999FECF92BD81BDF89A992723
:1054E00080B50895A8E1B0E042E050E00C949E2A17
:1054F000262FF999FECF92BD81BDF89A019700B48D
:10550000021639F01FBA20BD0FB6F894FA9AF99A2C
:105510000FBE08950396272F0E94792A0E94782AA9
:10552000252F0E94792A242F0C94792A0196272F5F
:105530000E94792A0C94782ADC01CB01FC01F999AC
:10554000FECF06C0F2BDE1BDF89A319600B40D92CF
:1055500041505040B8F70895F894FFCFB00FB00F06
:10556000081008105A107610DD0FDD0FB810441126
:1055700053115311AF11DD0FDD0FB811211221129C
:105580002A122A122C122A122A122A12211221124B
:1055900031122A122A123112EC281429FD29142959
:0C55A000FD2947296829FD29BF29CB29D6
:1055AC0001022808641E140A321E97227023452318
:1055BC0041232F2301E200E900EA00B500B600B751
:1055CC0000CD008301CC008A0192019401210223B9
:1055DC000224022502260227022A02B300B4006F1D
:1055EC000070008182839190F5F4F631333635E208
:1055FC0000E900EA00B500B600B700CD008301CC8D
:10560C00008A019201940121022302240225022620
:10561C000227022A02B300B4006F0070008182835B
:10562C00010203040506070809004081224D0BCC3A
:0A563C000AAA0A4F0A680A810A0050
:00000001FF
